:020000040800F2
:100000002807002001010008771700081B130008CB
:10001000751700087D0100085B1A00080000000049
:100020000000000000000000000000007B17000836
:100030007F01000800000000791700087D17000804
:100040001B0100081B0100081B0100081B01000820
:100050001B0100081B0100081B0100089701000894
:100060009D0100081B0100081B0100081B0100087E
:100070001B0100081B0100081B0100081B010008F0
:100080001B0100081B0100081B0100081B010008E0
:100090001B0100081B0100081B0100081B010008D0
:1000A0001B0100081B0100081B0100080D180008B7
:1000B000191800081B0100081B0100081B0100089B
:1000C0001B0100081B0100081B0100081B010008A0
:1000D0001B0100081B0100081B0100081B01000890
:1000E000810100081B0100081B010008DFF80CD08B
:1000F00000F032F800480047851C0008280700205F
:100100000648804706480047FEE7FEE7FEE7FEE7B1
:10011000FEE7FEE7FEE7FEE7FEE7FEE7C51700089D
:10012000ED000008D2B201E000F8012B491EFBD21D
:1001300070470022F6E710B513460A4604461946F2
:10014000FFF7F0FF204610BD421C10F8011B0029EC
:10015000FBD1801A70470000064C074D06E0E068AE
:1001600040F0010394E8070098471034AC42F6D3FE
:10017000FFF7C0FFF826000818270008FEE77047C1
:1001800010B54FF4806000F089F8BDE810404FF4DE
:10019000006000F083B8022000F080B8042000F076
:1001A0007DB8000070B5044600F07EF90546601C7D
:1001B00002D004480078044400F076F9401BA042C5
:1001C000FAD370BD3000002070B52F4C06460125D3
:1001D0002069042E07D000BF022E0DD000BFB6F557
:1001E000806F35D02FE0E56010B10020206100E085
:1001F000256100BF00BF3EE0A168244A491CA16000
:1002000000284FF00801104608D000F043F90028FC
:10021000A06913D00A2815DD401F12E000F03AF95A
:100220000028E06903D00A280CDD0A3804E040F217
:10023000DE31884206DA0A30E06103E05A2801DA4A
:10024000401DA061E56000BFB6F5006F15D012E05B
:100250002560606900280EDD0D49A0690860002155
:100260000C4800F0E7FF012211460B4800F017F997
:100270006069401E606100BF70BDE560E0690A21F1
:1002800090FBF1F0606170BD0000002000080140AB
:10029000342C014094000020000C0140044910B5AA
:1002A0000A68024202D00860FFF78EFF10BD00000E
:1002B000140401402DE9F84FDFF8B891002409F14A
:1002C000040A0AF1040B23460F270BF1040EC9E0C0
:1002D0000125A5402A40AA427DD1674ED1F804C02D
:1002E000ACEB0608B44532D014DCBCF1030F3AD0B5
:1002F00009DCBCF1000F2AD0BCF1010F1CD0BCF10D
:10030000020F31D11DE0BCF1110F17D0BCF1120F5B
:100310002AD119E0B8F5881F19D006DCB8F5803F5E
:1003200015D0B8F5801F1FD111E0B8F5001F0ED011
:10033000B8F5041F18D10AE0CB6815E0CB681B1D87
:1003400012E0CB6808330FE0CB680C330CE08B680D
:100350002BB1012B4FF0080303D0456104E00423C7
:1003600002E0056100E00023FF2A01D8064601E013
:1003700000F104064FEA840501D9A5F12005D6F85D
:10038000008007FA05FC28EA0C0803FA05F548EA9C
:100390000508C6F800804D68ED0062D5374DAE699E
:1003A00046F00106AE61AD6924F0030605F00105D3
:1003B0000095334D06EB050CDCF80850A607360F08
:1003C00007FA06F825EA0805DFF8B880404503D1AA
:1003D0004FF0000817E044E0DFF8AC80404502D160
:1003E0004FF001080FE0DFF8A480404502D14FF044
:1003F000020808E0DFF89880404502D14FF003087A
:1004000001E04FF0040808FA06F848EA0508CCF8BD
:1004100008804D68D9F80060ED034D4601D51643BC
:1004200000E096432E604D68DAF80060AD03554653
:1004300001D5164300E096432E604D68DBF800605E
:10044000ED025D4601D5164300E096432E604D68EF
:10045000DEF80060AD02754601D5164300E0964314
:100460002E60641C0D682A46E5407FF431AFBDE87C
:10047000F88F00000004014000001110001002403D
:100480000000014000080140000C01400010014044
:10049000001401408068084000D0012070470AB174
:1004A000016170470904FBE701488068704700005C
:1004B0003000002070B504001BD094F83D000025EA
:1004C00020B984F83C50204600F046F9242084F8F6
:1004D0003D002068016821F00101016000F0A2FAEE
:1004E0004D4A6168914201D84C4900E04C4988422C
:1004F00001D2012070BD4B492368B0FBF1F15E6869
:1005000026F03F060E435E606368934206D94FF4BF
:10051000967359434FF47A73B1FBF3F12368491C86
:100520001E6A26F03F06314319626168914210D875
:100530004900401EB0FBF1F2521CC2F30B02042A28
:1005400001D2042022E0B0FBF1F0401CC0F30B000C
:100550001CE0A368F3B301EBC10202EB0116421EDB
:10056000B2FBF6F2521C42F48042120549D093B31A
:1005700001EBC10202EB0111401EB0FBF1F0401C87
:10058000C0F30B0040F4804040F400402168CA6989
:100590004CF6FF739A431043C861D4E9070108433E
:1005A00021680A6822F0C00210430860D4E9030100
:1005B00001432068826848F2FF339A431143816007
:1005C000D4E9050108432168CA6822F0FF021043FC
:1005D000C86001E00EE016E02068016841F001010A
:1005E00001602564202084F83D00256384F83E5096
:1005F000002070BD01EB4106421EB2FBF6F2521C18
:10060000B3E70120C2E701EB4101401EB0FBF1F06E
:10061000401CC0F30B00B7E7A086010080841E00D9
:1006200000093D0040420F002DE9FF4F83B09A467C
:10063000DDE9119793460446DDF84080FFF734FF6B
:10064000054694F83D0020287FD119230122404916
:100650002046009500F0EAFE002876D194F83C0090
:10066000012872D0012084F83C0020680168C90785
:1006700003D1016841F0010101602068016821F4A3
:1006800000610160212084F83D00402084F83E0094
:1006900000262664C4F82480A4F82A90608D208562
:1006A0002C48E062CDE9007553465A46204604992D
:1006B00000F04CFE70B930E02A463946204600F082
:1006C00034FF58B1206C042804D12068016841F43B
:1006D00000710160012007B0BDE8F08F606A2168F9
:1006E00000780861606A401C6062218D491E89B2F1
:1006F0002185628D521E628522685369DB435B0748
:100700000BD469B100781061606A401C6062208D72
:10071000401E2085608D401E6085208D0028CBD135
:100720002A463946204600F05BFE0028CAD154F81C
:100730003D0B016841F400710160202004F81E099E
:10074000E67766770020C6E7FFE70220C3E70000F0
:10075000020010000000FFFF10B586B000210091DC
:1007600001910291039100681349884222D1134CF0
:10077000A06940F00800A061A069694600F0080087
:1007800004904FF4407000901220019003200390D9
:100790000B48FFF78FFD0B48416841F0E06141F0E5
:1007A00002014160E06940F40010E061E06900F49A
:1007B0000010049006B010BD00540040001002402C
:1007C000000C014000000140024881680278114499
:1007D0008160704730000020074810B5016841F083
:1007E00010010160032000F075F8002000F006F809
:1007F00000F024F8002010BD0020024070B50D4D1F
:1008000004464FF47A712878B1FBF0F00A49096880
:10081000B1FBF0F000F0DCFA48B9102C07D200224E
:100820002146501E00F036F800206C6070BD01209B
:1008300070BD0000300000203C0000200C4808B5CE
:10084000816941F001018161816901F0010100913B
:10085000C16941F08051C161C06900F080500090D1
:100860000448416821F0E06141F00071416008BD39
:100870000010024000000140002809DB00F01F02C8
:10088000012191404009800000F1E020C0F80011F2
:1008900070470000F0B40E4B1B680C46C3F30223F4
:1008A000C3F10705042D00D90425191D072901D21C
:1008B000002300E0DB1E012606FA05F1491E214057
:1008C00099409E40761E16403143F0BC01F0C6B8F8
:1008D0000CED00E0064900F0070208684FF6FF0340
:1008E000184040EA0220034A1043086070470000A5
:1008F0000CED00E00000FA052DE9F0470F46050079
:1009000061D0434E306800F00700B84209D2306829
:1009100020F0070038433060306800F00700B8422C
:1009200051D128683B4C810712D5400703D5606838
:1009300040F4E06060602878000703D5606840F408
:10094000605060606068A96820F0F0000843606053
:100950002878C00728D06868012810D021680228AC
:1009600010D0890700292EDA616821F003010143C4
:100970006160FFF799FD804641F288390DE02168FA
:100980008903EFE78901EDE7FFF78EFDA0EB080192
:10099000494502D90320BDE8F0876068696800F026
:1009A0000C00B0EB810FEFD1306800F00700B842C7
:1009B0000BD9306820F0070038433060306800F011
:1009C0000700B84201D00120E5E72878400705D5A7
:1009D0006068E96820F4E0600843606028780007F8
:1009E00006D56068296920F4605040EAC100606063
:1009F00000F028F86168084AC1F30311515CC8404F
:100A00000649086006480068FFF7F8FE0020C2E7C4
:100A10000020024000100240E02600083C000020B8
:100A2000340000200448054900684968044AC1F3BD
:100A30000221515CC84070473C0000200010024079
:100A4000F026000812A185B00FC98DE80F0014A090
:100A5000144A006804905168134801F00C03042BF9
:100A600010D0082B0ED1C1F38343C9031DF8030036
:100A70000AD5516804AAC1F34041515C0A4A504367
:100A8000B0FBF1F005B0704708494843FAE70000B1
:100A900002030405060708090A0B0C0D0E0F1010BF
:100AA000010200000010024000127A0000093D001F
:100AB0002DE9F84F040070D02078C04DC00749D010
:100AC0006868C0F38100012807D06868C0F381001E
:100AD000022809D16868C00306D52868800339D583
:100AE00060680028E7D035E06068B0F5803F0BD043
:100AF00010B1B0F5A02F11D0286820F48030286004
:100B0000286820F4802002E0286840F480302860C3
:100B1000606890B1FFF7C8FC06460AE0286840F418
:100B200080202860F0E700BFFFF7BEFC801B642830
:100B300073D828688003F7D50CE0FFF7B5FC0646AC
:100B400005E000BFFFF7B0FC801B6428F0D82868E0
:100B50008003F7D420789A4E80074FF001094FF0B8
:100B6000000839D5686810F00C0F07D06868C0F32A
:100B70008100022809D16868C00306D4286880076C
:100B800014D52069012808D110E02069B0B1C6F859
:100B90000090FFF789FC074605E00AE1FFF784FCB7
:100BA000C01B0228C4D828688007F7D52868616967
:100BB00020F0F80040EAC10028600DE0C6F800808F
:100BC000FFF772FC074604E0FFF76EFCC01B02282B
:100BD00023D828688007F7D4207800072CD57948D7
:100BE000A169D9B1C0F80090FFF75EFC074604E0A8
:100BF000FFF75AFCC01B02280FD8686A8007F7D598
:100C000071484FF4FA510068B0FBF1F0009000BF5A
:100C10000098411E0091FAD20EE080E0C0F80080FA
:100C2000FFF742FC074604E0FFF73EFCC01B02282A
:100C300075D8686A8007F7D42078400760D5E869DE
:100C40000027C00008D4E86940F08050E861E869F6
:100C5000012700F0805000905C480168C90513D45A
:100C60000168834641F480710160FFF71DFC8246F4
:100C700006E000BFFFF718FCA0EB0A0064284ED87E
:100C8000DBF80000C005F5D5E06801280AD008B1FE
:100C9000052813D0286A20F001002862286A20F075
:100CA000040002E0286A40F001002862E06841F296
:100CB000883B98B1FFF7F8FB82460BE0286A40F0CA
:100CC00004002862EEE700BFFFF7EEFBA0EB0A018D
:100CD00059455AD8286A8007F6D50CE0FFF7E4FB9F
:100CE000824605E0FFF7E0FBA0EB0A0159454CD82E
:100CF000286A8007F6D41FB1E86920F08050E861C7
:100D0000E06988B36968C1F38101022944D00228EF
:100D1000C6F8608004D0FFF7C7FB044638E034E033
:100D2000FFF7C2FB074604E0FFF7BEFBC01B02282B
:100D30002BD828688001F7D4206AB0F5803F05D110
:100D40006868A16820F4003008436860D4E90801AD
:100D50000843696821F4741108436860C6F860901C
:100D6000FFF7A2FB044606E025E000BFFFF79CFB6F
:100D7000001B022809D828688001F7D51BE000BFB6
:100D8000FFF792FB001B022802D90320BDE8F88F71
:100D900028688001F4D40EE00128F7D06868226A40
:100DA00000F48031914204D1616A00F470108842ED
:100DB00001D00120EAE70020E8E70000001002402F
:100DC00000004242800442423C000020007000408B
:100DD00010B5401EB0F1807F01D3012010BD4FF04F
:100DE000E02460610F21601700F038FE0020A06150
:100DF00007202061002010BD7047704710B590F8A3
:100E00003C20012A22D0012280F83C20CA688C684C
:100E100022F4407222434C6822F4806222430C6820
:100E200022F4006222430C6922F4805222434C696E
:100E300022F400522243C969002322F480420A436B
:100E400001684A6480F83C30002010BD022010BDCB
:100E500070B590F83C20012A19D0012400F83C4FCD
:100E60000222427050F83C3C5A689D6822F070069D
:100E70000A684968324325F0800529435A6050F8D2
:100E80003C2C9160447000210170084670BD022026
:100E900070BD10B5040003D094F83D0010B107E018
:100EA000012010BD002084F83C00204600F00CF822
:100EB000022084F83D00211D206800F0B3FC0120D1
:100EC00084F83D00002010BD08B5154A016815489A
:100ED00091420ED1816941F40061816180690022F3
:100EE00000F40060009011461B20FFF7D3FC1B208C
:100EF00010E0B1F1804F11D1C16941F00101C16130
:100F0000C069002200F00100009011461C20FFF78C
:100F1000C1FC1C20BDE80840FFF7AEBC08BD0000C6
:100F2000002C0140001002400168CA6842F0010232
:100F3000CA600068816801F00701062903D00168D2
:100F400041F0010101600020704770B5044690F83F
:100F50003C00012817D0012584F83C50022084F879
:100F60003D002068826822F0770222F47F4282608E
:100F70000868502830D00DDC20284DD005DC98B30F
:100F800010283BD148E0022070BD302844D04028D2
:100F900034D139E0602828D0702806D0B0F5805FC1
:100FA0002CD0B0F5005F29D10AE0CB68D1E901214E
:100FB000206800F07AFC2068816841F0770109E040
:100FC000CB68D1E90121206800F06FFC20688168BE
:100FD00041F48041816011E0CA684968206800F0EE
:100FE00019FD5021206807E016E0CA6849682068AA
:100FF00000F021FD6021206800F061FC84F83D5084
:10100000002084F83C0070BDCA684968206800F080
:1010100001FD40212068EFE7226801461046EBE71A
:10102000704770B50446006801694FF00005C94378
:10103000890715D4C168C943890711D4E91E016124
:1010400001202077206880698007204602D0FFF7C2
:10105000E7FF04E000F0C4F8204600F047F92577E8
:1010600020680169C943490717D4C168C9434907C2
:1010700013D46FF004010161022020772068806999
:1010800010F4407F204602D0FFF7CAFF04E000F0D2
:10109000A7F8204600F02AF9257720680169C9439E
:1010A000090716D4C168C943090712D46FF00801B3
:1010B0000161042020772068C0698007204602D0A3
:1010C000FFF7AEFF04E000F08BF8204600F00EF9C9
:1010D000257720680169C943C90617D4C168C94387
:1010E000C90613D46FF01001016108202077206831
:1010F000C06910F4407F204602D0FFF791FF04E062
:1011000000F06EF8204600F0F1F8257720680169BC
:10111000C943C90708D1C168C943C90704D1891E99
:101120000161204600F0E4F820680169C94309061E
:1011300009D4C168C943090605D46FF08001016173
:101140002046FFF759FE20680169C943490609D4C2
:10115000C168C943490605D46FF0400101612046CA
:1011600000F0DAF820680169C94389060BD4C16828
:10117000C943890607D46FF0200101612046BDE80C
:101180007040FFF73ABE70BD70B5044690F83C0061
:1011900001280DD0012584F83C50022084F83D0040
:1011A00042B1042A0AD0082A0CD00C2A11D10DE031
:1011B000022070BD206800F08BFB0AE0206800F080
:1011C000AFFB06E0206800F0D7FB02E0206800F0EB
:1011D000FFFB84F83D50002084F83C0070BD000007
:1011E00000680449884204D1002201210248FFF727
:1011F00056B97047002C0140000C014010B50400A6
:1012000003D094F83D0010B107E0012010BD00208C
:1012100084F83C00204600F00CF8022084F83D00E1
:10122000211D206800F0FEFA012084F83D00002016
:1012300010BD704710B50268044631B1042908D0CA
:10124000082922D00C2908D123E0D06840F0020000
:1012500002E0D06840F00400D0600122206800F075
:1012600017FB0E492068884203D1416C41F40041CC
:1012700041642068816801F00701062903D00168F4
:1012800041F001010160002010BDD06840F008006D
:10129000E2E7D06840F01000DEE70000002C0140DB
:1012A00070B50D46040003D094F83D0010B107E07E
:1012B000012070BD002084F83C00204600F015F8A5
:1012C000022084F83D00211D206800F0ABFA206860
:1012D000016821F00801016020680168294301606C
:1012E000012084F83D00002070BD70477047000069
:1012F0000068B0F1804F09D106480122002103683F
:10130000012B04D041604161C260016070474260BE
:10131000FAE70000000000207047FEE701684A6914
:10132000D24352050FD46FF480624A61002140F825
:10133000301F202242738173026942F0040202616D
:101340000173012070470020704700002DE9F84329
:10135000044600680D46DDE9089701689846164680
:1013600041F4807101604B4600224FF0011120468C
:10137000009700F05BF8E0B9216805F0FE00086115
:101380003B464A461549204600F084F888B9206853
:101390004169806900903A464946204600F0C5F808
:1013A00050B1206C042804D12068016841F4007118
:1013B00001600120BDE8F883F5B2B8F1010F09D052
:1013C0002168300A08613A464946204600F0ADF8E7
:1013D0000028E6D1206805610020EBE7020001004B
:1013E00070B516460D4604460DE02046FFF796FF01
:1013F00008B1012070BD681C05D0FFF755F8801BAF
:10140000A84207D835B120684069C0434007ECD4F2
:10141000002070BD002044F8300F20216173A073BC
:10142000216941F0200121612073E2E72DE9F047B5
:101430001E4690460D460446C1F30747DDF820904E
:1014400008E0701C06D0FFF72FF8A0EB0900B042AF
:101450000FD876B12068012F18D0806925EA0000E6
:101460000004000C14D000214145EAD00020BDE862
:10147000F087002044F8300F20216173A0732169A8
:1014800041F02001216120730120F0E74069E5E788
:101490000121E9E72DE9F0479A4691460E460446B8
:1014A00000254FF02008C1F3074725E02068406978
:1014B000C043400514D42068016841F40071016004
:1014C00021686FF480604861256384F83D8084F86A
:1014D0003E50206C40F00400206484F83C501FE033
:1014E000B9F1FF3F08D0FEF7DFFFA0EB0A01494545
:1014F0000CD8B9F1000F09D02068012F13D08069F2
:1015000026EA00000004000C0BD0CFE744F8305F5F
:1015100084F80D80A573206940F0200020612573B8
:101520000120BDE8F0874069EAE770B516460D4630
:1015300004460DE02046FFF7F1FE08B1012070BD22
:10154000681C05D0FEF7B0FF801BA84207D835B154
:1015500020684069C0430006ECD4002070BD002024
:1015600044F8300F20216173A073216941F02001FC
:1015700021612073E2E700002DE9F04186B00024EC
:1015800039480094019402940394816941F0100158
:101590008161816901F010010491816941F02001AC
:1015A0008161816901F020010491816941F00401A8
:1015B0008161816901F004010491816941F00801B0
:1015C00081618069294F00F0080004900022012108
:1015D0003846FEF764FF264E0620CDE90006DFF808
:1015E00094800125694602954046FEF763FE082077
:1015F0008DE8310069464046FEF75CFE022000950A
:10160000CDE90150039069463846FEF753FEE802E3
:10161000CDE90006694602943846FEF74BFEA80263
:1016200000901548CDE9010469464046FEF742FEA8
:10163000002211460720FFF72DF90720FFF71CF9BC
:10164000002211460820FFF725F90820FFF714F9BA
:10165000002211462820FFF71DF92820FFF70CF97A
:1016600006B0BDE8F081000000100240000C01400F
:1016700000002110000801400000111010B596B0C4
:1016800000240F9410941194129413941C2108A810
:101690001494FEF74EFD20216846FEF74AFD2048CF
:1016A0001E49016040F21F31C0E901145921C0E90F
:1016B000031444618461FFF7ECFB4FF480500F90FA
:1016C0000FA91748FFF741FC1548FFF797FD0821C0
:1016D0001348FFF7E5FD139413A911481494FFF77D
:1016E000B7FB2D20CDE908400A940B940C940D947F
:1016F000002208A90A480E94FFF746FD00944FF413
:101700000050CDE9044002940194039469460448D2
:101710000794FFF773FB16B010BD0000002C0140CA
:101720009400002010B586B0002411480094019464
:101730000294039404944FF080410594016041F6B3
:101740003F71C0E901140911C0E903148461FFF776
:10175000A0FB4FF48050009069460548FFF7F5FB69
:10176000049404A902480594FFF772FB06B010BD6B
:10177000D4000020FEE7704770477047FFF724B899
:1017800010B590B028216846FEF7D3FC14210AA8B2
:10179000FEF7CFFC022000900120049010200024CE
:1017A000059007946846FFF783F90F20CDE90A04F6
:1017B0000C940D9400210AA80E94FFF79DF810B028
:1017C00010BD00000D48016841F001010160416851
:1017D0000B4A1140416001680A4A114001600168EA
:1017E00021F480210160416821F4FE0141604FF441
:1017F0001F0181600449C003086070470010024067
:101800000000FFF8FFFFF6FE08ED00E00148FFF7DB
:1018100008BC0000940000200148FFF702BC000053
:10182000D4000020F0B50268164B174C174D4FF04E
:101830008047984205D0B84203D0A04201D0A842C8
:1018400003D122F070064A683243984205D0B8426C
:1018500003D0A04201D0A84203D122F44074CA6848
:1018600022434C6922F08002224302608A68C262ED
:101870000A688262984201D10969016301214161CC
:10188000F0BD0000002C01400004004000080040B2
:1018900010B501F01F030121046A99408C430462D2
:1018A000016A9A401143016210BD10B5846842EA92
:1018B000032224F47F440A432243826010BD8268DD
:1018C00022F070020A4342F0070181607047000075
:1018D00030B5026A22F001020262026A436884693A
:1018E00024F073050C682C4322F002058A682A4311
:1018F0000A4DA8420BD122F00805CA6823F44073B0
:101900002A434D6922F004021D438B692B43436037
:10191000846149684163026230BD0000002C0140CF
:1019200030B5026A22F010020262026A43688469DA
:101930000D6824F4E64444EA05248D6822F0200270
:1019400042EA05120B4DA8420ED1CD6822F080026A
:1019500042EA05124D6923F4406343EA85038D6929
:1019600022F0400243EA8503436084614968816351
:10197000026230BD002C014030B5026A22F4807250
:101980000262036A4268C46923F4007324F0730599
:101990000C682C438D6843EA05230C4DA8420ED1F8
:1019A000CD6823F4006343EA05234D6922F44052D5
:1019B00042EA05128D6923F4806342EA051242600F
:1019C000C4614968C163036230BD0000002C01405E
:1019D00030B5026A22F480520262046A4268C36926
:1019E0000D6823F4E64343EA05238D6824F400548C
:1019F00044EA0534064DA84204D14D6922F48042E0
:101A000042EA85124260C36149680164046230BDE4
:101A1000002C014010B5036A046A24F0010404623A
:101A2000846924F0F00444EA021423F00A020A4311
:101A30008461026210BD10B5036A23F010030362D3
:101A40008369046A23F4704343EA023224F0A0035A
:101A500043EA01118261016210BDFEE70907090E28
:101A6000002804DB00F1E02080F80014704700F04B
:101A70000F0000F1E02080F8141D704702E008C854
:101A8000121F08C1002AFAD170477047002001E0F8
:101A900001C1121F002AFBD17047000070B55E4CD7
:101AA000E06801287ED10020E0605C49E06900F038
:101AB000CDF85A49A0690A3100F0C8F8002000F0BA
:101AC0003FF920694FF0010200287ED00D217820D7
:101AD00000F016F901220D21792000F011F9012200
:101AE0000D21772000F00CF901220C21782000F064
:101AF00007F901220E21782000F002F900210520CB
:101B000000F096F9464D012346A0D5E9001200F0F9
:101B10001BFA0021282000F08BF9D5E900120123DF
:101B20003E4800F011FAE0690A2809DA0021302065
:101B300000F07EF9D5E9001201233CA000F004FA80
:101B4000E0690A385A2809D20021382000F070F9DB
:101B5000D5E90012012335A000F0F6F9E069632809
:101B600009DD0021402000F063F9D5E900120123CE
:101B70002EA000F0E9F90A21052000F059F9D5E975
:101B8000001201232AA000F0DFF90A21522000F000
:101B90004FF92248D5E9001201230A3000F0D4F9A8
:101BA000A06901E037E010E064284FF00A0122D07C
:101BB0005FF0620000F03CF9D5E9001201231FA09C
:101BC00000F0C2F96068C0B121E00421782000F083
:101BD00097F801220421792000F092F801220421D3
:101BE000772000F08DF801220321782000F088F89A
:101BF000012205217FE76A20DCE71521142000F08F
:101C000017F9D5E9001201230DA000F09DF9BDE8F8
:101C1000704000F013B970BD0000002014010020D6
:101C20002000002054696D653A2000006D730000AB
:101C300044757479206379636C653A00250000006F
:101C40002D4E4F2050554C5345532D0030B4041E9B
:101C500000DA604200220A2390FBF3F503FB15052E
:101C600090FBF3F030358D54521C0028F4DC002C2E
:101C700002DA2D208854521C0020885430BC0846BB
:101C800000F02EB8FEF7A8FDFFF77AFDFFF774FC11
:101C9000114810494FF48042016010494160002111
:101CA0008160C0E9031241618161C1610162FEF797
:101CB00001FCFFF7E3FCFFF735FD07489430FFF721
:101CC00033F900F04DF800F0B9F800BFFFF7E6FE79
:101CD000FCE700000054004040000020A086010006
:101CE00070B505460024FEF72FFA401E05E0295D79
:101CF0002A5C2A552954401E641C8442F7DB70BDBF
:101D000070B5802813D2202911D20B4B012401F089
:101D100007051E79AC40094BC90800EBC1100EB194
:101D200032B101E0012A03D0195CA143195470BDFE
:101D3000195C2143FAE70000280000202801002058
:101D400010B5064A00214FF4007328B1FF24545403
:101D5000491C9942F9D310BD0024F8E7280100205E
:101D600010B56420FEF71EFAAE2000F0DBF820204C
:101D700000F0D8F8102000F0D5F8B02000F0D2F82C
:101D8000C02000F0CFF8002000F0CCF8102000F0C8
:101D9000C9F8402000F0C6F8812000F0C3F8FF2009
:101DA00000F0C0F8A02000F0BDF8A62000F0BAF8BE
:101DB000A82000F0B7F81F2000F0B4F8A42000F02D
:101DC000B1F8D32000F0AEF8002000F0ABF8D52039
:101DD00000F0A8F8F02000F0A5F8D92000F0A2F853
:101DE000222000F09FF8DA2000F09CF8022000F09A
:101DF00099F8DB2000F096F8202000F093F88D2071
:101E000000F090F8142000F08DF8AF2000F08AF870
:101E10000020FFF795FF00F011F804480021018031
:101E2000418001214171084610BD000028000020BA
:101E3000014A10805180704728000020FEB5002420
:101E400064250F4F802600BF04F1B000C0B200F03F
:101E500069F8002000F066F8102000F063F807EB46
:101E6000C410CDE9000601234022782102950548DF
:101E7000FEF7DAFB641CE4B2082CE5D3FEBD0000DB
:101E800028010020400000202DE9FF4F8346244810
:101E90009246CEB202883244802A06D281464088D9
:101EA000C1F307273844202803D3002004B0BDE83D
:101EB000F08F002528E000BFABF1200000FB0750A9
:101EC00000243AF810801CE008FA04F0000409D558
:101ED00099F8021099F8000029442044C9B2C0B210
:101EE000039A0BE00398C0B15FF0000299F802106A
:101EF00099F8000029442044C9B2C0B2FFF700FF9E
:101F0000641CA642E0D86D1CAF42D5D8B9F80010C9
:101F100058463144A9F80010C8E70122E6E700005E
:101F20002800002001B584B001210A2204A88DE810
:101F300007000B46002278210248FEF775FB05B02A
:101F400000BD000040000020F0B51D460E461746BB
:101F500004460AE02B463A463146FFF795FF2178C2
:101F6000884201D0C8B2F0BD641C20780028F1D1AD
:101F7000C0B2F0BD00000000000000000000000042
:101F80000000000000000000001000100010001011
:101F900000100010000000100000000000280028C1
:101FA0000028000000000000000000000000000009
:101FB00000240024007C00240048007C00480048E5
:101FC0000000000000380054005000380014005495
:101FD0000054003800100000002000540058003069
:101FE0000028005400140008000000000010002821
:101FF00000280010003400480048003400000000B1
:1020000000100010001000000000000000000000A0
:102010000000000000080010002000200020002028
:102020000020002000100008002000100008000818
:102030000008000800080008001000200010003808
:102040000010002800000000000000000000000058
:102050000000000000100010007C001000100000C4
:102060000000000000000000000000000000000070
:102070000000001000100010000000000000000030
:102080000000003800000000000000000000000018
:102090000000000000000000000000100000000030
:1020A00000080008001000100010001000200020A0
:1020B0000000000000380044004400540044004484
:1020C00000440038000000000010003000500010F4
:1020D0000010001000100010000000000038004444
:1020E00000440004000800100020007C00000000F4
:1020F00000380044000400180004000400440038C4
:102100000000000000080018002800280048007C9B
:102110000008000800000000007C0040004000783B
:1021200000040004004400380000000000380044AF
:1021300000400078004400440044003800000000E3
:10214000007C000400080010001000200020002087
:1021500000000000003800440044003800440044FF
:1021600000440038000000000038004400440044EF
:10217000003C0004004400380000000000000000A3
:10218000001000000000000000000010000000002F
:10219000000000000000001000000000000000101F
:1021A0000010001000000000000C00300040003063
:1021B000000C000000000000000000000000007C97
:1021C0000000007C00000000000000000000000093
:1021D000006000180004001800600000000000000B
:1021E0000038004400040008001000100000001037
:1021F0000000000000380044004C0054005C004027
:1022000000400038000000000010002800280028CE
:102210000028007C004400440000000000780044D6
:1022200000440078004400440044007800000000AE
:1022300000380044004000400040004000440038A6
:1022400000000000007000480044004400440044C6
:102250000048007000000000007C00400040007C4E
:10226000004000400040007C00000000007C004076
:1022700000400078004000400040004000000000A6
:102280000038004400400040005C00440044003836
:1022900000000000004400440044007C004400446E
:1022A000004400440000000000380010001000103E
:1022B00000100010001000380000000000040004AE
:1022C0000004000400040004004400380000000082
:1022D000004400480050006000500048004800449E
:1022E000000000000040004000400040004000406E
:1022F0000040007C000000000044006C006C0054B2
:102300000044004400440044000000000044006415
:10231000006400540054004C004C004400000000D5
:1023200000380044004400440044004400440038A5
:1023300000000000007800440044004400780040A1
:102340000040004000000000003800440044004409
:1023500000440044005400380004000000780044A9
:102360000044004400780048004800440000000099
:1023700000380044004000300008000400440038E9
:1023800000000000007C0010001000100010001081
:10239000001000100000000000440044004400440D
:1023A00000440044004400380000000000440044A1
:1023B0000044002800280028001000100000000041
:1023C00000440044005400540054006C00280028CD
:1023D0000000000000440028002800100010002821
:1023E00000280044000000000044004400280028A9
:1023F000001000100010001000000000007C00041D
:1024000000080010001000200040007C00000000C8
:102410000018001000100010001000100010001034
:102420000010001800200020001000100010001004
:10243000000800080000000000300010001000102C
:1024400000100010001000100010003000100028D4
:102450000028004400000000000000000000000010
:10246000000000000000000000000000000000006C
:10247000000000FE0020001000000000000000002E
:1024800000000000000000000000000000380044D0
:10249000003C0044004C00340000000000400040BC
:1024A000005800640044004400640058000000002C
:1024B00000000000003800440040004000440038A4
:1024C00000000000000400040034004C00440044FC
:1024D000004C003400000000000000000038004400
:1024E000007C00400044003800000000000C001098
:1024F000007C001000100010001000100000000010
:10250000000000000034004C00440044004C003443
:10251000000400780040004000580064004400447B
:102520000044004400000000001000000070001093
:10253000001000100010001000000000001000004B
:10254000007000100010001000100010001000E0DB
:102550000040004000480050006000500048004427
:1025600000000000007000100010001000100010AB
:10257000001000100000000000000000007800546F
:1025800000540054005400540000000000000000FB
:10259000005800640044004400440044000000006F
:1025A00000000000003800440044004400440038AB
:1025B00000000000000000000058006400440044D7
:1025C0000064005800400040000000000034004C4F
:1025D00000440044004C00340004000400000000EB
:1025E000005800640040004000400040000000002F
:1025F00000000000003800440030000800440038AB
:1026000000000000002000200078002000200020B2
:1026100000200018000000000000000000440044FA
:1026200000440044004C00340000000000000000A2
:10263000004400440028002800280010000000008A
:1026400000000000005400540054006C00280028D2
:1026500000000000000000000044002800100010EE
:102660000028004400000000000000000044004476
:10267000002800280010001000100060000000007A
:10268000007C0008001000200040007C00000000DA
:102690000018001000100010002000200010001092
:1026A00000100018001000100010001000100010A2
:1026B000001000100010001000300010001000107A
:1026C000000800080010001000100030000000009A
:1026D00000000074004C000000000000000000003A
:1026E00000000000000000000102030406070809C2
:1026F0000000000001020304182700080000002069
:10270000400000007C1A0008582700084000002004
:10271000E80600008C1A000800000000000000001D
:1027200000000000010000000000000000000000A8
:10273000460000000A000000070A0000741F00089D
:102740000000000000000000010000001000000078
:08275000000000000024F40069
:04000005080000ED02
:00000001FF
